{
  "contractName": "UavAuth",
  "abi": [
    {
      "inputs": [
        {
          "internalType": "uint256",
          "name": "",
          "type": "uint256"
        }
      ],
      "name": "govlist",
      "outputs": [
        {
          "internalType": "address",
          "name": "pid",
          "type": "address"
        },
        {
          "internalType": "string",
          "name": "UserName",
          "type": "string"
        },
        {
          "internalType": "string",
          "name": "PAN",
          "type": "string"
        },
        {
          "internalType": "string",
          "name": "phNo",
          "type": "string"
        },
        {
          "internalType": "string",
          "name": "location",
          "type": "string"
        },
        {
          "components": [
            {
              "internalType": "string",
              "name": "UAVType",
              "type": "string"
            },
            {
              "internalType": "string",
              "name": "ModelNum",
              "type": "string"
            },
            {
              "internalType": "string",
              "name": "SerialNum",
              "type": "string"
            },
            {
              "internalType": "string",
              "name": "OME",
              "type": "string"
            },
            {
              "internalType": "string",
              "name": "NPL",
              "type": "string"
            }
          ],
          "internalType": "struct UavAuth.UAVSpecs",
          "name": "specs",
          "type": "tuple"
        }
      ],
      "stateMutability": "view",
      "type": "function"
    },
    {
      "inputs": [
        {
          "internalType": "string",
          "name": "_username",
          "type": "string"
        },
        {
          "internalType": "string",
          "name": "_pan",
          "type": "string"
        },
        {
          "internalType": "string",
          "name": "_phno",
          "type": "string"
        },
        {
          "internalType": "string",
          "name": "_location",
          "type": "string"
        },
        {
          "internalType": "string",
          "name": "_uavtype",
          "type": "string"
        },
        {
          "internalType": "string",
          "name": "_modelnum",
          "type": "string"
        },
        {
          "internalType": "string",
          "name": "_serialnum",
          "type": "string"
        },
        {
          "internalType": "string",
          "name": "_ome",
          "type": "string"
        },
        {
          "internalType": "string",
          "name": "_npl",
          "type": "string"
        }
      ],
      "name": "registerUser",
      "outputs": [],
      "stateMutability": "nonpayable",
      "type": "function"
    }
  ],
  "bytecode": "0x608060405234801561000f575f80fd5b506110158061001d5f395ff3fe608060405234801561000f575f80fd5b5060043610610034575f3560e01c80633eacf2f614610038578063bdda62fd14610054575b5f80fd5b610052600480360381019061004d91906108e6565b610089565b005b61006e60048036038101906100699190610ad9565b610243565b60405161008096959493929190610c94565b60405180910390f35b5f6040518060a001604052808781526020018681526020018581526020018481526020018381525090505f6040518060c001604052803373ffffffffffffffffffffffffffffffffffffffff1681526020018c81526020018b81526020018a81526020018981526020018381525090505f81908060018154018082558091505060019003905f5260205f2090600a02015f909190919091505f820151815f015f6101000a81548173ffffffffffffffffffffffffffffffffffffffff021916908373ffffffffffffffffffffffffffffffffffffffff160217905550602082015181600101908161017a9190610f10565b5060408201518160020190816101909190610f10565b5060608201518160030190816101a69190610f10565b5060808201518160040190816101bc9190610f10565b5060a0820151816005015f820151815f0190816101d99190610f10565b5060208201518160010190816101ef9190610f10565b5060408201518160020190816102059190610f10565b50606082015181600301908161021b9190610f10565b5060808201518160040190816102319190610f10565b50505050505050505050505050505050565b5f8181548110610251575f80fd5b905f5260205f2090600a02015f91509050805f015f9054906101000a900473ffffffffffffffffffffffffffffffffffffffff169080600101805461029590610d43565b80601f01602080910402602001604051908101604052809291908181526020018280546102c190610d43565b801561030c5780601f106102e35761010080835404028352916020019161030c565b820191905f5260205f20905b8154815290600101906020018083116102ef57829003601f168201915b50505050509080600201805461032190610d43565b80601f016020809104026020016040519081016040528092919081815260200182805461034d90610d43565b80156103985780601f1061036f57610100808354040283529160200191610398565b820191905f5260205f20905b81548152906001019060200180831161037b57829003601f168201915b5050505050908060030180546103ad90610d43565b80601f01602080910402602001604051908101604052809291908181526020018280546103d990610d43565b80156104245780601f106103fb57610100808354040283529160200191610424565b820191905f5260205f20905b81548152906001019060200180831161040757829003601f168201915b50505050509080600401805461043990610d43565b80601f016020809104026020016040519081016040528092919081815260200182805461046590610d43565b80156104b05780601f10610487576101008083540402835291602001916104b0565b820191905f5260205f20905b81548152906001019060200180831161049357829003601f168201915b505050505090806005016040518060a00160405290815f820180546104d490610d43565b80601f016020809104026020016040519081016040528092919081815260200182805461050090610d43565b801561054b5780601f106105225761010080835404028352916020019161054b565b820191905f5260205f20905b81548152906001019060200180831161052e57829003601f168201915b5050505050815260200160018201805461056490610d43565b80601f016020809104026020016040519081016040528092919081815260200182805461059090610d43565b80156105db5780601f106105b2576101008083540402835291602001916105db565b820191905f5260205f20905b8154815290600101906020018083116105be57829003601f168201915b505050505081526020016002820180546105f490610d43565b80601f016020809104026020016040519081016040528092919081815260200182805461062090610d43565b801561066b5780601f106106425761010080835404028352916020019161066b565b820191905f5260205f20905b81548152906001019060200180831161064e57829003601f168201915b5050505050815260200160038201805461068490610d43565b80601f01602080910402602001604051908101604052809291908181526020018280546106b090610d43565b80156106fb5780601f106106d2576101008083540402835291602001916106fb565b820191905f5260205f20905b8154815290600101906020018083116106de57829003601f168201915b5050505050815260200160048201805461071490610d43565b80601f016020809104026020016040519081016040528092919081815260200182805461074090610d43565b801561078b5780601f106107625761010080835404028352916020019161078b565b820191905f5260205f20905b81548152906001019060200180831161076e57829003601f168201915b505050505081525050905086565b5f604051905090565b5f80fd5b5f80fd5b5f80fd5b5f80fd5b5f601f19601f8301169050919050565b7f4e487b71000000000000000000000000000000000000000000000000000000005f52604160045260245ffd5b6107f8826107b2565b810181811067ffffffffffffffff82111715610817576108166107c2565b5b80604052505050565b5f610829610799565b905061083582826107ef565b919050565b5f67ffffffffffffffff821115610854576108536107c2565b5b61085d826107b2565b9050602081019050919050565b828183375f83830152505050565b5f61088a6108858461083a565b610820565b9050828152602081018484840111156108a6576108a56107ae565b5b6108b184828561086a565b509392505050565b5f82601f8301126108cd576108cc6107aa565b5b81356108dd848260208601610878565b91505092915050565b5f805f805f805f805f6101208a8c031215610904576109036107a2565b5b5f8a013567ffffffffffffffff811115610921576109206107a6565b5b61092d8c828d016108b9565b99505060208a013567ffffffffffffffff81111561094e5761094d6107a6565b5b61095a8c828d016108b9565b98505060408a013567ffffffffffffffff81111561097b5761097a6107a6565b5b6109878c828d016108b9565b97505060608a013567ffffffffffffffff8111156109a8576109a76107a6565b5b6109b48c828d016108b9565b96505060808a013567ffffffffffffffff8111156109d5576109d46107a6565b5b6109e18c828d016108b9565b95505060a08a013567ffffffffffffffff811115610a0257610a016107a6565b5b610a0e8c828d016108b9565b94505060c08a013567ffffffffffffffff811115610a2f57610a2e6107a6565b5b610a3b8c828d016108b9565b93505060e08a013567ffffffffffffffff811115610a5c57610a5b6107a6565b5b610a688c828d016108b9565b9250506101008a013567ffffffffffffffff811115610a8a57610a896107a6565b5b610a968c828d016108b9565b9150509295985092959850929598565b5f819050919050565b610ab881610aa6565b8114610ac2575f80fd5b50565b5f81359050610ad381610aaf565b92915050565b5f60208284031215610aee57610aed6107a2565b5b5f610afb84828501610ac5565b91505092915050565b5f73ffffffffffffffffffffffffffffffffffffffff82169050919050565b5f610b2d82610b04565b9050919050565b610b3d81610b23565b82525050565b5f81519050919050565b5f82825260208201905092915050565b5f5b83811015610b7a578082015181840152602081019050610b5f565b5f8484015250505050565b5f610b8f82610b43565b610b998185610b4d565b9350610ba9818560208601610b5d565b610bb2816107b2565b840191505092915050565b5f82825260208201905092915050565b5f610bd782610b43565b610be18185610bbd565b9350610bf1818560208601610b5d565b610bfa816107b2565b840191505092915050565b5f60a083015f8301518482035f860152610c1f8282610bcd565b91505060208301518482036020860152610c398282610bcd565b91505060408301518482036040860152610c538282610bcd565b91505060608301518482036060860152610c6d8282610bcd565b91505060808301518482036080860152610c878282610bcd565b9150508091505092915050565b5f60c082019050610ca75f830189610b34565b8181036020830152610cb98188610b85565b90508181036040830152610ccd8187610b85565b90508181036060830152610ce18186610b85565b90508181036080830152610cf58185610b85565b905081810360a0830152610d098184610c05565b9050979650505050505050565b7f4e487b71000000000000000000000000000000000000000000000000000000005f52602260045260245ffd5b5f6002820490506001821680610d5a57607f821691505b602082108103610d6d57610d6c610d16565b5b50919050565b5f819050815f5260205f209050919050565b5f6020601f8301049050919050565b5f82821b905092915050565b5f60088302610dcf7fffffffffffffffffffffffffffffffffffffffffffffffffffffffffffffffff82610d94565b610dd98683610d94565b95508019841693508086168417925050509392505050565b5f819050919050565b5f610e14610e0f610e0a84610aa6565b610df1565b610aa6565b9050919050565b5f819050919050565b610e2d83610dfa565b610e41610e3982610e1b565b848454610da0565b825550505050565b5f90565b610e55610e49565b610e60818484610e24565b505050565b5b81811015610e8357610e785f82610e4d565b600181019050610e66565b5050565b601f821115610ec857610e9981610d73565b610ea284610d85565b81016020851015610eb1578190505b610ec5610ebd85610d85565b830182610e65565b50505b505050565b5f82821c905092915050565b5f610ee85f1984600802610ecd565b1980831691505092915050565b5f610f008383610ed9565b9150826002028217905092915050565b610f1982610b43565b67ffffffffffffffff811115610f3257610f316107c2565b5b610f3c8254610d43565b610f47828285610e87565b5f60209050601f831160018114610f78575f8415610f66578287015190505b610f708582610ef5565b865550610fd7565b601f198416610f8686610d73565b5f5b82811015610fad57848901518255600182019150602085019450602081019050610f88565b86831015610fca5784890151610fc6601f891682610ed9565b8355505b6001600288020188555050505b50505050505056fea2646970667358221220d911b6384a1d69466b0fc02e987bf294ef81f78e2a2d5589b6e6480fc7af782764736f6c63430008150033",
  "immutableReferences": {},
  "source": "// SPDX-License-Identifier: MIT\r\npragma solidity ^0.8.17;\r\n\r\ncontract UavAuth {\r\n    struct UserDetails {\r\n        address pid;\r\n        string UserName;\r\n        string PAN;\r\n        string phNo;\r\n        string location;\r\n        UAVSpecs specs;\r\n    }\r\n\r\n    struct UAVSpecs {\r\n        string UAVType;\r\n        string ModelNum;\r\n        string SerialNum;\r\n        string OME;\r\n        string NPL;\r\n        // string ManufacturerName;\r\n        // string ManufacturerAddress;\r\n        // string ManufacturerNationality;\r\n        // string TakeoffWeight;\r\n        // string HeightAttainable;\r\n        // string Payload;\r\n    }\r\n\r\n    UserDetails[] public govlist;\r\n    //mapping(address => UserDetails) public Users;\r\n\r\n    function registerUser(\r\n        string memory _username,\r\n        string memory _pan,\r\n        string memory _phno,\r\n        string memory _location,\r\n        string memory _uavtype,\r\n        string memory _modelnum,\r\n        string memory _serialnum,\r\n        string memory _ome,\r\n        string memory _npl\r\n    ) public {\r\n        UAVSpecs memory newspecs = UAVSpecs(\r\n            _uavtype,\r\n            _modelnum,\r\n            _serialnum,\r\n            _ome,\r\n            _npl\r\n        );\r\n        UserDetails memory newuser = UserDetails(\r\n            msg.sender,\r\n            _username,\r\n            _pan,\r\n            _phno,\r\n            _location,\r\n            newspecs\r\n        );\r\n        //Users[msg.sender] = newuser;\r\n        govlist.push(newuser);\r\n    }\r\n\r\n    // function getuser(address _wa)\r\n    //     public\r\n    //     view\r\n    //     returns (\r\n    //         string memory,\r\n    //         string memory,\r\n    //         string memory,\r\n    //         string memory,\r\n    //         string memory,\r\n    //         string memory,\r\n    //         string memory,\r\n    //         string memory,\r\n    //         string memory\r\n    //     )\r\n    // {\r\n    //     UserDetails memory user = Users[_wa];\r\n\r\n    //     return (\r\n    //         user.UserName,\r\n    //         user.PAN,\r\n    //         user.phNo,\r\n    //         user.location,\r\n    //         user.specs.UAVType,\r\n    //         user.specs.ModelNum,\r\n    //         user.specs.SerialNum,\r\n    //         user.specs.OME,\r\n    //         user.specs.NPL\r\n    //     );\r\n    // }\r\n}\r\n\r\n",
  "sourcePath": "Z:\\UAVChain\\contracts\\UavAuth.sol",
  "compiler": {
    "name": "solc",
    "version": "0.8.21+commit.d9974bed.Emscripten.clang"
  },
  "schemaVersion": "3.4.16",
  "updatedAt": "2024-03-13T15:25:44.129Z",
  "devdoc": {
    "kind": "dev",
    "methods": {},
    "version": 1
  },
  "userdoc": {
    "kind": "user",
    "methods": {},
    "version": 1
  }
}