{
  "contractName": "UavAuth",
  "abi": [
    {
      "inputs": [
        {
          "internalType": "address",
          "name": "",
          "type": "address"
        }
      ],
      "name": "Users",
      "outputs": [
        {
          "internalType": "address",
          "name": "pid",
          "type": "address"
        },
        {
          "internalType": "string",
          "name": "UserName",
          "type": "string"
        },
        {
          "internalType": "string",
          "name": "PAN",
          "type": "string"
        },
        {
          "internalType": "string",
          "name": "phNo",
          "type": "string"
        },
        {
          "internalType": "string",
          "name": "location",
          "type": "string"
        },
        {
          "components": [
            {
              "internalType": "string",
              "name": "UAVType",
              "type": "string"
            },
            {
              "internalType": "string",
              "name": "ModelNum",
              "type": "string"
            },
            {
              "internalType": "string",
              "name": "SerialNum",
              "type": "string"
            },
            {
              "internalType": "string",
              "name": "OME",
              "type": "string"
            },
            {
              "internalType": "string",
              "name": "NPL",
              "type": "string"
            }
          ],
          "internalType": "struct UavAuth.UAVSpecs",
          "name": "specs",
          "type": "tuple"
        }
      ],
      "stateMutability": "view",
      "type": "function"
    },
    {
      "inputs": [
        {
          "internalType": "uint256",
          "name": "",
          "type": "uint256"
        }
      ],
      "name": "govlist",
      "outputs": [
        {
          "internalType": "address",
          "name": "pid",
          "type": "address"
        },
        {
          "internalType": "string",
          "name": "UserName",
          "type": "string"
        },
        {
          "internalType": "string",
          "name": "PAN",
          "type": "string"
        },
        {
          "internalType": "string",
          "name": "phNo",
          "type": "string"
        },
        {
          "internalType": "string",
          "name": "location",
          "type": "string"
        },
        {
          "components": [
            {
              "internalType": "string",
              "name": "UAVType",
              "type": "string"
            },
            {
              "internalType": "string",
              "name": "ModelNum",
              "type": "string"
            },
            {
              "internalType": "string",
              "name": "SerialNum",
              "type": "string"
            },
            {
              "internalType": "string",
              "name": "OME",
              "type": "string"
            },
            {
              "internalType": "string",
              "name": "NPL",
              "type": "string"
            }
          ],
          "internalType": "struct UavAuth.UAVSpecs",
          "name": "specs",
          "type": "tuple"
        }
      ],
      "stateMutability": "view",
      "type": "function"
    },
    {
      "inputs": [
        {
          "internalType": "string",
          "name": "_username",
          "type": "string"
        },
        {
          "internalType": "string",
          "name": "_pan",
          "type": "string"
        },
        {
          "internalType": "string",
          "name": "_phno",
          "type": "string"
        },
        {
          "internalType": "string",
          "name": "_location",
          "type": "string"
        },
        {
          "internalType": "string",
          "name": "_uavtype",
          "type": "string"
        },
        {
          "internalType": "string",
          "name": "_modelnum",
          "type": "string"
        },
        {
          "internalType": "string",
          "name": "_serialnum",
          "type": "string"
        },
        {
          "internalType": "string",
          "name": "_ome",
          "type": "string"
        },
        {
          "internalType": "string",
          "name": "_npl",
          "type": "string"
        }
      ],
      "name": "registerUser",
      "outputs": [],
      "stateMutability": "nonpayable",
      "type": "function"
    },
    {
      "inputs": [
        {
          "internalType": "address",
          "name": "_wa",
          "type": "address"
        }
      ],
      "name": "getuser",
      "outputs": [
        {
          "internalType": "string",
          "name": "",
          "type": "string"
        },
        {
          "internalType": "string",
          "name": "",
          "type": "string"
        },
        {
          "internalType": "string",
          "name": "",
          "type": "string"
        },
        {
          "internalType": "string",
          "name": "",
          "type": "string"
        },
        {
          "internalType": "string",
          "name": "",
          "type": "string"
        },
        {
          "internalType": "string",
          "name": "",
          "type": "string"
        },
        {
          "internalType": "string",
          "name": "",
          "type": "string"
        },
        {
          "internalType": "string",
          "name": "",
          "type": "string"
        },
        {
          "internalType": "string",
          "name": "",
          "type": "string"
        }
      ],
      "stateMutability": "view",
      "type": "function"
    }
  ],
  "bytecode": "0x608060405234801561000f575f80fd5b50611e838061001d5f395ff3fe608060405234801561000f575f80fd5b506004361061004a575f3560e01c80633eacf2f61461004e57806399b956a01461006a578063bdda62fd1461009f578063cd571874146100d4575b5f80fd5b61006860048036038101906100639190611635565b61010c565b005b610084600480360381019061007f919061184f565b61041a565b604051610096969594939291906119da565b60405180910390f35b6100b960048036038101906100b49190611a8f565b610962565b6040516100cb969594939291906119da565b60405180910390f35b6100ee60048036038101906100e9919061184f565b610eb8565b60405161010399989796959493929190611aba565b60405180910390f35b5f6040518060a001604052808781526020018681526020018581526020018481526020018381525090505f6040518060c001604052803373ffffffffffffffffffffffffffffffffffffffff1681526020018c81526020018b81526020018a81526020018981526020018381525090508060015f3373ffffffffffffffffffffffffffffffffffffffff1673ffffffffffffffffffffffffffffffffffffffff1681526020019081526020015f205f820151815f015f6101000a81548173ffffffffffffffffffffffffffffffffffffffff021916908373ffffffffffffffffffffffffffffffffffffffff16021790555060208201518160010190816102139190611d7e565b5060408201518160020190816102299190611d7e565b50606082015181600301908161023f9190611d7e565b5060808201518160040190816102559190611d7e565b5060a0820151816005015f820151815f0190816102729190611d7e565b5060208201518160010190816102889190611d7e565b50604082015181600201908161029e9190611d7e565b5060608201518160030190816102b49190611d7e565b5060808201518160040190816102ca9190611d7e565b5050509050505f81908060018154018082558091505060019003905f5260205f2090600a02015f909190919091505f820151815f015f6101000a81548173ffffffffffffffffffffffffffffffffffffffff021916908373ffffffffffffffffffffffffffffffffffffffff16021790555060208201518160010190816103519190611d7e565b5060408201518160020190816103679190611d7e565b50606082015181600301908161037d9190611d7e565b5060808201518160040190816103939190611d7e565b5060a0820151816005015f820151815f0190816103b09190611d7e565b5060208201518160010190816103c69190611d7e565b5060408201518160020190816103dc9190611d7e565b5060608201518160030190816103f29190611d7e565b5060808201518160040190816104089190611d7e565b50505050505050505050505050505050565b6001602052805f5260405f205f91509050805f015f9054906101000a900473ffffffffffffffffffffffffffffffffffffffff169080600101805461045e90611bb1565b80601f016020809104026020016040519081016040528092919081815260200182805461048a90611bb1565b80156104d55780601f106104ac576101008083540402835291602001916104d5565b820191905f5260205f20905b8154815290600101906020018083116104b857829003601f168201915b5050505050908060020180546104ea90611bb1565b80601f016020809104026020016040519081016040528092919081815260200182805461051690611bb1565b80156105615780601f1061053857610100808354040283529160200191610561565b820191905f5260205f20905b81548152906001019060200180831161054457829003601f168201915b50505050509080600301805461057690611bb1565b80601f01602080910402602001604051908101604052809291908181526020018280546105a290611bb1565b80156105ed5780601f106105c4576101008083540402835291602001916105ed565b820191905f5260205f20905b8154815290600101906020018083116105d057829003601f168201915b50505050509080600401805461060290611bb1565b80601f016020809104026020016040519081016040528092919081815260200182805461062e90611bb1565b80156106795780601f1061065057610100808354040283529160200191610679565b820191905f5260205f20905b81548152906001019060200180831161065c57829003601f168201915b505050505090806005016040518060a00160405290815f8201805461069d90611bb1565b80601f01602080910402602001604051908101604052809291908181526020018280546106c990611bb1565b80156107145780601f106106eb57610100808354040283529160200191610714565b820191905f5260205f20905b8154815290600101906020018083116106f757829003601f168201915b5050505050815260200160018201805461072d90611bb1565b80601f016020809104026020016040519081016040528092919081815260200182805461075990611bb1565b80156107a45780601f1061077b576101008083540402835291602001916107a4565b820191905f5260205f20905b81548152906001019060200180831161078757829003601f168201915b505050505081526020016002820180546107bd90611bb1565b80601f01602080910402602001604051908101604052809291908181526020018280546107e990611bb1565b80156108345780601f1061080b57610100808354040283529160200191610834565b820191905f5260205f20905b81548152906001019060200180831161081757829003601f168201915b5050505050815260200160038201805461084d90611bb1565b80601f016020809104026020016040519081016040528092919081815260200182805461087990611bb1565b80156108c45780601f1061089b576101008083540402835291602001916108c4565b820191905f5260205f20905b8154815290600101906020018083116108a757829003601f168201915b505050505081526020016004820180546108dd90611bb1565b80601f016020809104026020016040519081016040528092919081815260200182805461090990611bb1565b80156109545780601f1061092b57610100808354040283529160200191610954565b820191905f5260205f20905b81548152906001019060200180831161093757829003601f168201915b505050505081525050905086565b5f8181548110610970575f80fd5b905f5260205f2090600a02015f91509050805f015f9054906101000a900473ffffffffffffffffffffffffffffffffffffffff16908060010180546109b490611bb1565b80601f01602080910402602001604051908101604052809291908181526020018280546109e090611bb1565b8015610a2b5780601f10610a0257610100808354040283529160200191610a2b565b820191905f5260205f20905b815481529060010190602001808311610a0e57829003601f168201915b505050505090806002018054610a4090611bb1565b80601f0160208091040260200160405190810160405280929190818152602001828054610a6c90611bb1565b8015610ab75780601f10610a8e57610100808354040283529160200191610ab7565b820191905f5260205f20905b815481529060010190602001808311610a9a57829003601f168201915b505050505090806003018054610acc90611bb1565b80601f0160208091040260200160405190810160405280929190818152602001828054610af890611bb1565b8015610b435780601f10610b1a57610100808354040283529160200191610b43565b820191905f5260205f20905b815481529060010190602001808311610b2657829003601f168201915b505050505090806004018054610b5890611bb1565b80601f0160208091040260200160405190810160405280929190818152602001828054610b8490611bb1565b8015610bcf5780601f10610ba657610100808354040283529160200191610bcf565b820191905f5260205f20905b815481529060010190602001808311610bb257829003601f168201915b505050505090806005016040518060a00160405290815f82018054610bf390611bb1565b80601f0160208091040260200160405190810160405280929190818152602001828054610c1f90611bb1565b8015610c6a5780601f10610c4157610100808354040283529160200191610c6a565b820191905f5260205f20905b815481529060010190602001808311610c4d57829003601f168201915b50505050508152602001600182018054610c8390611bb1565b80601f0160208091040260200160405190810160405280929190818152602001828054610caf90611bb1565b8015610cfa5780601f10610cd157610100808354040283529160200191610cfa565b820191905f5260205f20905b815481529060010190602001808311610cdd57829003601f168201915b50505050508152602001600282018054610d1390611bb1565b80601f0160208091040260200160405190810160405280929190818152602001828054610d3f90611bb1565b8015610d8a5780601f10610d6157610100808354040283529160200191610d8a565b820191905f5260205f20905b815481529060010190602001808311610d6d57829003601f168201915b50505050508152602001600382018054610da390611bb1565b80601f0160208091040260200160405190810160405280929190818152602001828054610dcf90611bb1565b8015610e1a5780601f10610df157610100808354040283529160200191610e1a565b820191905f5260205f20905b815481529060010190602001808311610dfd57829003601f168201915b50505050508152602001600482018054610e3390611bb1565b80601f0160208091040260200160405190810160405280929190818152602001828054610e5f90611bb1565b8015610eaa5780601f10610e8157610100808354040283529160200191610eaa565b820191905f5260205f20905b815481529060010190602001808311610e8d57829003601f168201915b505050505081525050905086565b60608060608060608060608060605f60015f8c73ffffffffffffffffffffffffffffffffffffffff1673ffffffffffffffffffffffffffffffffffffffff1681526020019081526020015f206040518060c00160405290815f82015f9054906101000a900473ffffffffffffffffffffffffffffffffffffffff1673ffffffffffffffffffffffffffffffffffffffff1673ffffffffffffffffffffffffffffffffffffffff168152602001600182018054610f7390611bb1565b80601f0160208091040260200160405190810160405280929190818152602001828054610f9f90611bb1565b8015610fea5780601f10610fc157610100808354040283529160200191610fea565b820191905f5260205f20905b815481529060010190602001808311610fcd57829003601f168201915b5050505050815260200160028201805461100390611bb1565b80601f016020809104026020016040519081016040528092919081815260200182805461102f90611bb1565b801561107a5780601f106110515761010080835404028352916020019161107a565b820191905f5260205f20905b81548152906001019060200180831161105d57829003601f168201915b5050505050815260200160038201805461109390611bb1565b80601f01602080910402602001604051908101604052809291908181526020018280546110bf90611bb1565b801561110a5780601f106110e15761010080835404028352916020019161110a565b820191905f5260205f20905b8154815290600101906020018083116110ed57829003601f168201915b5050505050815260200160048201805461112390611bb1565b80601f016020809104026020016040519081016040528092919081815260200182805461114f90611bb1565b801561119a5780601f106111715761010080835404028352916020019161119a565b820191905f5260205f20905b81548152906001019060200180831161117d57829003601f168201915b50505050508152602001600582016040518060a00160405290815f820180546111c290611bb1565b80601f01602080910402602001604051908101604052809291908181526020018280546111ee90611bb1565b80156112395780601f1061121057610100808354040283529160200191611239565b820191905f5260205f20905b81548152906001019060200180831161121c57829003601f168201915b5050505050815260200160018201805461125290611bb1565b80601f016020809104026020016040519081016040528092919081815260200182805461127e90611bb1565b80156112c95780601f106112a0576101008083540402835291602001916112c9565b820191905f5260205f20905b8154815290600101906020018083116112ac57829003601f168201915b505050505081526020016002820180546112e290611bb1565b80601f016020809104026020016040519081016040528092919081815260200182805461130e90611bb1565b80156113595780601f1061133057610100808354040283529160200191611359565b820191905f5260205f20905b81548152906001019060200180831161133c57829003601f168201915b5050505050815260200160038201805461137290611bb1565b80601f016020809104026020016040519081016040528092919081815260200182805461139e90611bb1565b80156113e95780601f106113c0576101008083540402835291602001916113e9565b820191905f5260205f20905b8154815290600101906020018083116113cc57829003601f168201915b5050505050815260200160048201805461140290611bb1565b80601f016020809104026020016040519081016040528092919081815260200182805461142e90611bb1565b80156114795780601f1061145057610100808354040283529160200191611479565b820191905f5260205f20905b81548152906001019060200180831161145c57829003601f168201915b50505050508152505081525050905080602001518160400151826060015183608001518460a001515f01518560a00151602001518660a00151604001518760a00151606001518860a0015160800151995099509950995099509950995099509950509193959799909294969850565b5f604051905090565b5f80fd5b5f80fd5b5f80fd5b5f80fd5b5f601f19601f8301169050919050565b7f4e487b71000000000000000000000000000000000000000000000000000000005f52604160045260245ffd5b61154782611501565b810181811067ffffffffffffffff8211171561156657611565611511565b5b80604052505050565b5f6115786114e8565b9050611584828261153e565b919050565b5f67ffffffffffffffff8211156115a3576115a2611511565b5b6115ac82611501565b9050602081019050919050565b828183375f83830152505050565b5f6115d96115d484611589565b61156f565b9050828152602081018484840111156115f5576115f46114fd565b5b6116008482856115b9565b509392505050565b5f82601f83011261161c5761161b6114f9565b5b813561162c8482602086016115c7565b91505092915050565b5f805f805f805f805f6101208a8c031215611653576116526114f1565b5b5f8a013567ffffffffffffffff8111156116705761166f6114f5565b5b61167c8c828d01611608565b99505060208a013567ffffffffffffffff81111561169d5761169c6114f5565b5b6116a98c828d01611608565b98505060408a013567ffffffffffffffff8111156116ca576116c96114f5565b5b6116d68c828d01611608565b97505060608a013567ffffffffffffffff8111156116f7576116f66114f5565b5b6117038c828d01611608565b96505060808a013567ffffffffffffffff811115611724576117236114f5565b5b6117308c828d01611608565b95505060a08a013567ffffffffffffffff811115611751576117506114f5565b5b61175d8c828d01611608565b94505060c08a013567ffffffffffffffff81111561177e5761177d6114f5565b5b61178a8c828d01611608565b93505060e08a013567ffffffffffffffff8111156117ab576117aa6114f5565b5b6117b78c828d01611608565b9250506101008a013567ffffffffffffffff8111156117d9576117d86114f5565b5b6117e58c828d01611608565b9150509295985092959850929598565b5f73ffffffffffffffffffffffffffffffffffffffff82169050919050565b5f61181e826117f5565b9050919050565b61182e81611814565b8114611838575f80fd5b50565b5f8135905061184981611825565b92915050565b5f60208284031215611864576118636114f1565b5b5f6118718482850161183b565b91505092915050565b61188381611814565b82525050565b5f81519050919050565b5f82825260208201905092915050565b5f5b838110156118c05780820151818401526020810190506118a5565b5f8484015250505050565b5f6118d582611889565b6118df8185611893565b93506118ef8185602086016118a3565b6118f881611501565b840191505092915050565b5f82825260208201905092915050565b5f61191d82611889565b6119278185611903565b93506119378185602086016118a3565b61194081611501565b840191505092915050565b5f60a083015f8301518482035f8601526119658282611913565b9150506020830151848203602086015261197f8282611913565b915050604083015184820360408601526119998282611913565b915050606083015184820360608601526119b38282611913565b915050608083015184820360808601526119cd8282611913565b9150508091505092915050565b5f60c0820190506119ed5f83018961187a565b81810360208301526119ff81886118cb565b90508181036040830152611a1381876118cb565b90508181036060830152611a2781866118cb565b90508181036080830152611a3b81856118cb565b905081810360a0830152611a4f818461194b565b9050979650505050505050565b5f819050919050565b611a6e81611a5c565b8114611a78575f80fd5b50565b5f81359050611a8981611a65565b92915050565b5f60208284031215611aa457611aa36114f1565b5b5f611ab184828501611a7b565b91505092915050565b5f610120820190508181035f830152611ad3818c6118cb565b90508181036020830152611ae7818b6118cb565b90508181036040830152611afb818a6118cb565b90508181036060830152611b0f81896118cb565b90508181036080830152611b2381886118cb565b905081810360a0830152611b3781876118cb565b905081810360c0830152611b4b81866118cb565b905081810360e0830152611b5f81856118cb565b9050818103610100830152611b7481846118cb565b90509a9950505050505050505050565b7f4e487b71000000000000000000000000000000000000000000000000000000005f52602260045260245ffd5b5f6002820490506001821680611bc857607f821691505b602082108103611bdb57611bda611b84565b5b50919050565b5f819050815f5260205f209050919050565b5f6020601f8301049050919050565b5f82821b905092915050565b5f60088302611c3d7fffffffffffffffffffffffffffffffffffffffffffffffffffffffffffffffff82611c02565b611c478683611c02565b95508019841693508086168417925050509392505050565b5f819050919050565b5f611c82611c7d611c7884611a5c565b611c5f565b611a5c565b9050919050565b5f819050919050565b611c9b83611c68565b611caf611ca782611c89565b848454611c0e565b825550505050565b5f90565b611cc3611cb7565b611cce818484611c92565b505050565b5b81811015611cf157611ce65f82611cbb565b600181019050611cd4565b5050565b601f821115611d3657611d0781611be1565b611d1084611bf3565b81016020851015611d1f578190505b611d33611d2b85611bf3565b830182611cd3565b50505b505050565b5f82821c905092915050565b5f611d565f1984600802611d3b565b1980831691505092915050565b5f611d6e8383611d47565b9150826002028217905092915050565b611d8782611889565b67ffffffffffffffff811115611da057611d9f611511565b5b611daa8254611bb1565b611db5828285611cf5565b5f60209050601f831160018114611de6575f8415611dd4578287015190505b611dde8582611d63565b865550611e45565b601f198416611df486611be1565b5f5b82811015611e1b57848901518255600182019150602085019450602081019050611df6565b86831015611e385784890151611e34601f891682611d47565b8355505b6001600288020188555050505b50505050505056fea2646970667358221220d042c843ccc4a4ac798eb468dc1af2196493511843fb0a4516b554696e9266f264736f6c63430008150033",
  "immutableReferences": {},
  "source": "// SPDX-License-Identifier: MIT\r\npragma solidity ^0.8.17;\r\n\r\ncontract UavAuth {\r\n    struct UserDetails {\r\n        address pid;\r\n        string UserName;\r\n        string PAN;\r\n        string phNo;\r\n        string location;\r\n        UAVSpecs specs;\r\n    }\r\n\r\n    struct UAVSpecs {\r\n        string UAVType;\r\n        string ModelNum;\r\n        string SerialNum;\r\n        string OME;\r\n        string NPL;\r\n        // string ManufacturerName;\r\n        // string ManufacturerAddress;\r\n        // string ManufacturerNationality;\r\n        // string TakeoffWeight;\r\n        // string HeightAttainable;\r\n        // string Payload;\r\n    }\r\n\r\n    UserDetails[] public govlist;\r\n    mapping(address => UserDetails) public Users;\r\n\r\n    function registerUser(\r\n        string memory _username,\r\n        string memory _pan,\r\n        string memory _phno,\r\n        string memory _location,\r\n        string memory _uavtype,\r\n        string memory _modelnum,\r\n        string memory _serialnum,\r\n        string memory _ome,\r\n        string memory _npl\r\n    ) public {\r\n        UAVSpecs memory newspecs = UAVSpecs(\r\n            _uavtype,\r\n            _modelnum,\r\n            _serialnum,\r\n            _ome,\r\n            _npl\r\n        );\r\n        UserDetails memory newuser = UserDetails(\r\n            msg.sender,\r\n            _username,\r\n            _pan,\r\n            _phno,\r\n            _location,\r\n            newspecs\r\n        );\r\n        Users[msg.sender] = newuser;\r\n        govlist.push(newuser);\r\n    }\r\n\r\n    function getuser(address _wa)\r\n        public\r\n        view\r\n        returns (\r\n            string memory,\r\n            string memory,\r\n            string memory,\r\n            string memory,\r\n            string memory,\r\n            string memory,\r\n            string memory,\r\n            string memory,\r\n            string memory\r\n        )\r\n    {\r\n        UserDetails memory user = Users[_wa];\r\n\r\n        return (\r\n            user.UserName,\r\n            user.PAN,\r\n            user.phNo,\r\n            user.location,\r\n            user.specs.UAVType,\r\n            user.specs.ModelNum,\r\n            user.specs.SerialNum,\r\n            user.specs.OME,\r\n            user.specs.NPL\r\n        );\r\n    }\r\n}\r\n\r\n",
  "sourcePath": "Z:\\UAVChain\\contracts\\UavAuth.sol",
  "compiler": {
    "name": "solc",
    "version": "0.8.21+commit.d9974bed.Emscripten.clang"
  },
  "schemaVersion": "3.4.16",
  "updatedAt": "2024-03-12T04:33:31.989Z",
  "devdoc": {
    "kind": "dev",
    "methods": {},
    "version": 1
  },
  "userdoc": {
    "kind": "user",
    "methods": {},
    "version": 1
  }
}